{
  "_format": "hh-sol-artifact-1",
  "contractName": "Multicall2",
  "sourceName": "contracts/Multicall.sol",
  "abi": [
    {
      "inputs": [
        {
          "components": [
            {
              "internalType": "address",
              "name": "target",
              "type": "address"
            },
            {
              "internalType": "bytes",
              "name": "callData",
              "type": "bytes"
            }
          ],
          "internalType": "struct Multicall2.Call[]",
          "name": "calls",
          "type": "tuple[]"
        }
      ],
      "name": "aggregate",
      "outputs": [
        {
          "internalType": "uint256",
          "name": "blockNumber",
          "type": "uint256"
        },
        {
          "internalType": "bytes[]",
          "name": "returnData",
          "type": "bytes[]"
        }
      ],
      "stateMutability": "nonpayable",
      "type": "function"
    },
    {
      "inputs": [
        {
          "components": [
            {
              "internalType": "address",
              "name": "target",
              "type": "address"
            },
            {
              "internalType": "bytes",
              "name": "callData",
              "type": "bytes"
            }
          ],
          "internalType": "struct Multicall2.Call[]",
          "name": "calls",
          "type": "tuple[]"
        }
      ],
      "name": "blockAndAggregate",
      "outputs": [
        {
          "internalType": "uint256",
          "name": "blockNumber",
          "type": "uint256"
        },
        {
          "internalType": "bytes32",
          "name": "blockHash",
          "type": "bytes32"
        },
        {
          "components": [
            {
              "internalType": "bool",
              "name": "success",
              "type": "bool"
            },
            {
              "internalType": "bytes",
              "name": "returnData",
              "type": "bytes"
            }
          ],
          "internalType": "struct Multicall2.Result[]",
          "name": "returnData",
          "type": "tuple[]"
        }
      ],
      "stateMutability": "nonpayable",
      "type": "function"
    },
    {
      "inputs": [
        {
          "internalType": "uint256",
          "name": "blockNumber",
          "type": "uint256"
        }
      ],
      "name": "getBlockHash",
      "outputs": [
        {
          "internalType": "bytes32",
          "name": "blockHash",
          "type": "bytes32"
        }
      ],
      "stateMutability": "view",
      "type": "function"
    },
    {
      "inputs": [],
      "name": "getBlockNumber",
      "outputs": [
        {
          "internalType": "uint256",
          "name": "blockNumber",
          "type": "uint256"
        }
      ],
      "stateMutability": "view",
      "type": "function"
    },
    {
      "inputs": [],
      "name": "getCurrentBlockCoinbase",
      "outputs": [
        {
          "internalType": "address",
          "name": "coinbase",
          "type": "address"
        }
      ],
      "stateMutability": "view",
      "type": "function"
    },
    {
      "inputs": [],
      "name": "getCurrentBlockDifficulty",
      "outputs": [
        {
          "internalType": "uint256",
          "name": "difficulty",
          "type": "uint256"
        }
      ],
      "stateMutability": "view",
      "type": "function"
    },
    {
      "inputs": [],
      "name": "getCurrentBlockGasLimit",
      "outputs": [
        {
          "internalType": "uint256",
          "name": "gaslimit",
          "type": "uint256"
        }
      ],
      "stateMutability": "view",
      "type": "function"
    },
    {
      "inputs": [],
      "name": "getCurrentBlockTimestamp",
      "outputs": [
        {
          "internalType": "uint256",
          "name": "timestamp",
          "type": "uint256"
        }
      ],
      "stateMutability": "view",
      "type": "function"
    },
    {
      "inputs": [
        {
          "internalType": "address",
          "name": "addr",
          "type": "address"
        }
      ],
      "name": "getEthBalance",
      "outputs": [
        {
          "internalType": "uint256",
          "name": "balance",
          "type": "uint256"
        }
      ],
      "stateMutability": "view",
      "type": "function"
    },
    {
      "inputs": [],
      "name": "getLastBlockHash",
      "outputs": [
        {
          "internalType": "bytes32",
          "name": "blockHash",
          "type": "bytes32"
        }
      ],
      "stateMutability": "view",
      "type": "function"
    },
    {
      "inputs": [
        {
          "internalType": "bool",
          "name": "requireSuccess",
          "type": "bool"
        },
        {
          "components": [
            {
              "internalType": "address",
              "name": "target",
              "type": "address"
            },
            {
              "internalType": "bytes",
              "name": "callData",
              "type": "bytes"
            }
          ],
          "internalType": "struct Multicall2.Call[]",
          "name": "calls",
          "type": "tuple[]"
        }
      ],
      "name": "tryAggregate",
      "outputs": [
        {
          "components": [
            {
              "internalType": "bool",
              "name": "success",
              "type": "bool"
            },
            {
              "internalType": "bytes",
              "name": "returnData",
              "type": "bytes"
            }
          ],
          "internalType": "struct Multicall2.Result[]",
          "name": "returnData",
          "type": "tuple[]"
        }
      ],
      "stateMutability": "nonpayable",
      "type": "function"
    },
    {
      "inputs": [
        {
          "internalType": "bool",
          "name": "requireSuccess",
          "type": "bool"
        },
        {
          "components": [
            {
              "internalType": "address",
              "name": "target",
              "type": "address"
            },
            {
              "internalType": "bytes",
              "name": "callData",
              "type": "bytes"
            }
          ],
          "internalType": "struct Multicall2.Call[]",
          "name": "calls",
          "type": "tuple[]"
        }
      ],
      "name": "tryBlockAndAggregate",
      "outputs": [
        {
          "internalType": "uint256",
          "name": "blockNumber",
          "type": "uint256"
        },
        {
          "internalType": "bytes32",
          "name": "blockHash",
          "type": "bytes32"
        },
        {
          "components": [
            {
              "internalType": "bool",
              "name": "success",
              "type": "bool"
            },
            {
              "internalType": "bytes",
              "name": "returnData",
              "type": "bytes"
            }
          ],
          "internalType": "struct Multicall2.Result[]",
          "name": "returnData",
          "type": "tuple[]"
        }
      ],
      "stateMutability": "nonpayable",
      "type": "function"
    }
  ],
  "bytecode": "0x608060405234801561001057600080fd5b50610a34806100206000396000f3fe608060405234801561001057600080fd5b50600436106100a45760003560e01c80630f28c97d146100a9578063252dba42146100c757806327e86d6e146100e8578063399542e9146100f057806342cbb15c146101125780634d2301cc1461011a57806372425d9d1461012d57806386d516e814610135578063a8b0574e1461013d578063bce38bd714610152578063c3077fa914610172578063ee82ac5e14610185575b600080fd5b6100b1610198565b6040516100be9190610838565b60405180910390f35b6100da6100d53660046106ba565b61019c565b6040516100be9291906108b7565b6100b161032f565b6101036100fe3660046106f4565b610342565b6040516100be9392919061091f565b6100b161035a565b6100b1610128366004610699565b61035e565b6100b161036b565b6100b161036f565b610145610373565b6040516100be9190610811565b6101656101603660046106f4565b610377565b6040516100be9190610825565b6101036101803660046106ba565b610521565b6100b1610193366004610745565b61053e565b4290565b805143906060906001600160401b038111156101c857634e487b7160e01b600052604160045260246000fd5b6040519080825280602002602001820160405280156101fb57816020015b60608152602001906001900390816101e65790505b50905060005b83518110156103295760008085838151811061022d57634e487b7160e01b600052603260045260246000fd5b6020026020010151600001516001600160a01b031686848151811061026257634e487b7160e01b600052603260045260246000fd5b60200260200101516020015160405161027b91906107f5565b6000604051808303816000865af19150503d80600081146102b8576040519150601f19603f3d011682016040523d82523d6000602084013e6102bd565b606091505b5091509150816102e85760405162461bcd60e51b81526004016102df90610882565b60405180910390fd5b8084848151811061030957634e487b7160e01b600052603260045260246000fd5b602002602001018190525050508080610321906109b7565b915050610201565b50915091565b600061033c600143610970565b40905090565b43804060606103518585610377565b90509250925092565b4390565b6001600160a01b03163190565b4490565b4590565b4190565b606081516001600160401b038111156103a057634e487b7160e01b600052604160045260246000fd5b6040519080825280602002602001820160405280156103d957816020015b6103c6610542565b8152602001906001900390816103be5790505b50905060005b825181101561051a5760008084838151811061040b57634e487b7160e01b600052603260045260246000fd5b6020026020010151600001516001600160a01b031685848151811061044057634e487b7160e01b600052603260045260246000fd5b60200260200101516020015160405161045991906107f5565b6000604051808303816000865af19150503d8060008114610496576040519150601f19603f3d011682016040523d82523d6000602084013e61049b565b606091505b509150915085156104c357816104c35760405162461bcd60e51b81526004016102df90610841565b60405180604001604052808315158152602001828152508484815181106104fa57634e487b7160e01b600052603260045260246000fd5b602002602001018190525050508080610512906109b7565b9150506103df565b5092915050565b6000806060610531600185610342565b9196909550909350915050565b4090565b60408051808201909152600081526060602082015290565b80356001600160a01b038116811461057157600080fd5b919050565b600082601f830112610586578081fd5b813560206001600160401b03808311156105a2576105a26109e8565b6105af8283850201610947565b83815282810190868401865b8681101561068b57813589016040601f198181848f030112156105dc578a8bfd5b81518281018181108a821117156105f5576105f56109e8565b8352610602848b0161055a565b81528284013589811115610614578c8dfd5b8085019450508d603f850112610628578b8cfd5b898401358981111561063c5761063c6109e8565b61064c8b84601f84011601610947565b92508083528e84828701011115610661578c8dfd5b808486018c85013782018a018c9052808a01919091528652505092850192908501906001016105bb565b509098975050505050505050565b6000602082840312156106aa578081fd5b6106b38261055a565b9392505050565b6000602082840312156106cb578081fd5b81356001600160401b038111156106e0578182fd5b6106ec84828501610576565b949350505050565b60008060408385031215610706578081fd5b82358015158114610715578182fd5b915060208301356001600160401b0381111561072f578182fd5b61073b85828601610576565b9150509250929050565b600060208284031215610756578081fd5b5035919050565b60008282518085526020808601955080818302840101818601855b848110156107bc57858303601f19018952815180511515845284015160408585018190526107a8818601836107c9565b9a86019a9450505090830190600101610778565b5090979650505050505050565b600081518084526107e1816020860160208601610987565b601f01601f19169290920160200192915050565b60008251610807818460208701610987565b9190910192915050565b6001600160a01b0391909116815260200190565b6000602082526106b3602083018461075d565b90815260200190565b60208082526021908201527f4d756c746963616c6c32206167677265676174653a2063616c6c206661696c656040820152601960fa1b606082015260800190565b6020808252818101527f4d756c746963616c6c206167677265676174653a2063616c6c206661696c6564604082015260600190565b600060408201848352602060408185015281855180845260608601915060608382028701019350828701855b8281101561091157605f198887030184526108ff8683516107c9565b955092840192908401906001016108e3565b509398975050505050505050565b60008482528360208301526060604083015261093e606083018461075d565b95945050505050565b6040518181016001600160401b0381118282101715610968576109686109e8565b604052919050565b600082821015610982576109826109d2565b500390565b60005b838110156109a257818101518382015260200161098a565b838111156109b1576000848401525b50505050565b60006000198214156109cb576109cb6109d2565b5060010190565b634e487b7160e01b600052601160045260246000fd5b634e487b7160e01b600052604160045260246000fdfea2646970667358221220771593b473f3e05ff52fd3f7a43d54d26ea6b0a72db63080cae3c24da3f4f26b64736f6c63430008000033",
  "linkReferences": {},
  "deployedLinkReferences": {}
}