{
  "_format": "hh-sol-artifact-1",
  "contractName": "AnniversaryAchievement",
  "sourceName": "contracts/AnniversaryAchievement.sol",
  "abi": [
    {
      "inputs": [
        {
          "internalType": "address",
          "name": "_pancakeProfile",
          "type": "address"
        },
        {
          "internalType": "uint256",
          "name": "_numberPoints",
          "type": "uint256"
        },
        {
          "internalType": "uint256",
          "name": "_thresholdPoints",
          "type": "uint256"
        },
        {
          "internalType": "uint256",
          "name": "_campaignId",
          "type": "uint256"
        },
        {
          "internalType": "uint256",
          "name": "_endBlock",
          "type": "uint256"
        }
      ],
      "stateMutability": "nonpayable",
      "type": "constructor"
    },
    {
      "anonymous": false,
      "inputs": [
        {
          "indexed": false,
          "internalType": "uint256",
          "name": "campaignId",
          "type": "uint256"
        }
      ],
      "name": "NewCampaignId",
      "type": "event"
    },
    {
      "anonymous": false,
      "inputs": [
        {
          "indexed": false,
          "internalType": "uint256",
          "name": "endBlock",
          "type": "uint256"
        }
      ],
      "name": "NewEndBlock",
      "type": "event"
    },
    {
      "anonymous": false,
      "inputs": [
        {
          "indexed": false,
          "internalType": "uint256",
          "name": "numberPoints",
          "type": "uint256"
        },
        {
          "indexed": false,
          "internalType": "uint256",
          "name": "thresholdPoints",
          "type": "uint256"
        }
      ],
      "name": "NewNumberPointsAndThreshold",
      "type": "event"
    },
    {
      "anonymous": false,
      "inputs": [
        {
          "indexed": true,
          "internalType": "address",
          "name": "previousOwner",
          "type": "address"
        },
        {
          "indexed": true,
          "internalType": "address",
          "name": "newOwner",
          "type": "address"
        }
      ],
      "name": "OwnershipTransferred",
      "type": "event"
    },
    {
      "inputs": [],
      "name": "campaignId",
      "outputs": [
        {
          "internalType": "uint256",
          "name": "",
          "type": "uint256"
        }
      ],
      "stateMutability": "view",
      "type": "function"
    },
    {
      "inputs": [
        {
          "internalType": "address",
          "name": "_user",
          "type": "address"
        }
      ],
      "name": "canClaim",
      "outputs": [
        {
          "internalType": "bool",
          "name": "",
          "type": "bool"
        }
      ],
      "stateMutability": "view",
      "type": "function"
    },
    {
      "inputs": [
        {
          "internalType": "uint256",
          "name": "_campaignId",
          "type": "uint256"
        }
      ],
      "name": "changeCampaignId",
      "outputs": [],
      "stateMutability": "nonpayable",
      "type": "function"
    },
    {
      "inputs": [
        {
          "internalType": "uint256",
          "name": "_endBlock",
          "type": "uint256"
        }
      ],
      "name": "changeEndBlock",
      "outputs": [],
      "stateMutability": "nonpayable",
      "type": "function"
    },
    {
      "inputs": [
        {
          "internalType": "uint256",
          "name": "_numberPoints",
          "type": "uint256"
        },
        {
          "internalType": "uint256",
          "name": "_thresholdPoints",
          "type": "uint256"
        }
      ],
      "name": "changeNumberPointsAndThreshold",
      "outputs": [],
      "stateMutability": "nonpayable",
      "type": "function"
    },
    {
      "inputs": [],
      "name": "claimAnniversaryPoints",
      "outputs": [],
      "stateMutability": "nonpayable",
      "type": "function"
    },
    {
      "inputs": [],
      "name": "endBlock",
      "outputs": [
        {
          "internalType": "uint256",
          "name": "",
          "type": "uint256"
        }
      ],
      "stateMutability": "view",
      "type": "function"
    },
    {
      "inputs": [
        {
          "internalType": "address",
          "name": "",
          "type": "address"
        }
      ],
      "name": "hasClaimed",
      "outputs": [
        {
          "internalType": "bool",
          "name": "",
          "type": "bool"
        }
      ],
      "stateMutability": "view",
      "type": "function"
    },
    {
      "inputs": [],
      "name": "numberPoints",
      "outputs": [
        {
          "internalType": "uint256",
          "name": "",
          "type": "uint256"
        }
      ],
      "stateMutability": "view",
      "type": "function"
    },
    {
      "inputs": [],
      "name": "owner",
      "outputs": [
        {
          "internalType": "address",
          "name": "",
          "type": "address"
        }
      ],
      "stateMutability": "view",
      "type": "function"
    },
    {
      "inputs": [],
      "name": "pancakeProfile",
      "outputs": [
        {
          "internalType": "contract PancakeProfile",
          "name": "",
          "type": "address"
        }
      ],
      "stateMutability": "view",
      "type": "function"
    },
    {
      "inputs": [],
      "name": "renounceOwnership",
      "outputs": [],
      "stateMutability": "nonpayable",
      "type": "function"
    },
    {
      "inputs": [],
      "name": "thresholdPoints",
      "outputs": [
        {
          "internalType": "uint256",
          "name": "",
          "type": "uint256"
        }
      ],
      "stateMutability": "view",
      "type": "function"
    },
    {
      "inputs": [
        {
          "internalType": "address",
          "name": "newOwner",
          "type": "address"
        }
      ],
      "name": "transferOwnership",
      "outputs": [],
      "stateMutability": "nonpayable",
      "type": "function"
    }
  ],
  "bytecode": "0x608060405234801561001057600080fd5b5060405161098c38038061098c833981810160405260a081101561003357600080fd5b50805160208201516040830151606084015160809094015192939192909190600061005c6100db565b600080546001600160a01b0319166001600160a01b0383169081178255604051929350917f8be0079c531659141344cd1fd0a4f28419497f9722a3daafe3b4186f6b6457e0908290a350600180546001600160a01b0319166001600160a01b0396909616959095179094556003929092556004556002556005556100df565b3390565b61089e806100ee6000396000f3fe608060405234801561001057600080fd5b50600436106100ba5760003560e01c8063083c6323146100bf5780630f90a66e146100d957806349681dad146100fe5780636bda26f014610106578063715018a61461012357806373b2e80e1461012b57806382222674146101655780638da5cb5b146101825780638ed5b0fc146101a6578063a83e7975146101ae578063bf3506c1146101b6578063c7d936ec146101dc578063d4cad64b146101e4578063f2fde38b146101ec575b600080fd5b6100c7610212565b60408051918252519081900360200190f35b6100fc600480360360408110156100ef57600080fd5b5080359060200135610218565b005b6100c76102c3565b6100fc6004803603602081101561011c57600080fd5b50356102c9565b6100fc610366565b6101516004803603602081101561014157600080fd5b50356001600160a01b0316610400565b604080519115158252519081900360200190f35b6100fc6004803603602081101561017b57600080fd5b5035610415565b61018a6104b2565b604080516001600160a01b039092168252519081900360200190f35b6100c76104c1565b6100c76104c7565b610151600480360360208110156101cc57600080fd5b50356001600160a01b03166104cd565b61018a61061d565b6100fc61062c565b6100fc6004803603602081101561020257600080fd5b50356001600160a01b031661070e565b60055481565b6102206107fe565b6001600160a01b03166102316104b2565b6001600160a01b03161461027a576040805162461bcd60e51b81526020600482018190526024820152600080516020610829833981519152604482015290519081900360640190fd5b60038290556004819055604080518381526020810183905281517fe4825771661bac76a74e2076b3e1563018efcfee945dc6b422ef93590d276392929181900390910190a15050565b60035481565b6102d16107fe565b6001600160a01b03166102e26104b2565b6001600160a01b03161461032b576040805162461bcd60e51b81526020600482018190526024820152600080516020610829833981519152604482015290519081900360640190fd5b60028190556040805182815290517f7f934a4b778b842ccfa2d21085c446cb46ff9680061c17479f06a8a2054bf2a39181900360200190a150565b61036e6107fe565b6001600160a01b031661037f6104b2565b6001600160a01b0316146103c8576040805162461bcd60e51b81526020600482018190526024820152600080516020610829833981519152604482015290519081900360640190fd5b600080546040516001600160a01b0390911690600080516020610849833981519152908390a3600080546001600160a01b0319169055565b60066020526000908152604090205460ff1681565b61041d6107fe565b6001600160a01b031661042e6104b2565b6001600160a01b031614610477576040805162461bcd60e51b81526020600482018190526024820152600080516020610829833981519152604482015290519081900360640190fd5b60058190556040805182815290517f55baa248360bce74a89304071ca6e882f61d2226c15dde53a4ec1e05af523d929181900360200190a150565b6000546001600160a01b031690565b60025481565b60045481565b6001546040805163ea0d5dcd60e01b81526001600160a01b0384811660048301529151600093929092169163ea0d5dcd91602480820192602092909190829003018186803b15801561051e57600080fd5b505afa158015610532573d6000803e3d6000fd5b505050506040513d602081101561054857600080fd5b505161055657506000610618565b60015460408051634c3f70ab60e11b81526001600160a01b0385811660048301529151600093929092169163987ee1569160248082019260c092909190829003018186803b1580156105a757600080fd5b505afa1580156105bb573d6000803e3d6000fd5b505050506040513d60c08110156105d157600080fd5b506020908101516001600160a01b0385166000908152600690925260409091205490915060ff16158015610606575060055443105b801561061457506004548110155b9150505b919050565b6001546001600160a01b031681565b610635336104cd565b61067c576040805162461bcd60e51b8152602060048201526013602482015272436c61696d3a2043616e6e6f7420636c61696d60681b604482015290519081900360640190fd5b33600081815260066020526040808220805460ff19166001908117909155546003546002548351630dee0bfb60e11b815260048101969096526024860191909152604485015290516001600160a01b039190911692631bdc17f692606480830193919282900301818387803b1580156106f457600080fd5b505af1158015610708573d6000803e3d6000fd5b50505050565b6107166107fe565b6001600160a01b03166107276104b2565b6001600160a01b031614610770576040805162461bcd60e51b81526020600482018190526024820152600080516020610829833981519152604482015290519081900360640190fd5b6001600160a01b0381166107b55760405162461bcd60e51b81526004018080602001828103825260268152602001806108036026913960400191505060405180910390fd5b600080546040516001600160a01b038085169392169160008051602061084983398151915291a3600080546001600160a01b0319166001600160a01b0392909216919091179055565b339056fe4f776e61626c653a206e6577206f776e657220697320746865207a65726f20616464726573734f776e61626c653a2063616c6c6572206973206e6f7420746865206f776e65728be0079c531659141344cd1fd0a4f28419497f9722a3daafe3b4186f6b6457e0a2646970667358221220228a75f7a1545f7fe60035e38c3d05f6898b29a0d420e3d12fab62a30b03f93064736f6c634300060c0033",
  "linkReferences": {},
  "deployedLinkReferences": {}
}