{
  "_format": "hh-sol-artifact-1",
  "contractName": "PancakeProfile",
  "sourceName": "contracts/AnniversaryAchievement.sol",
  "abi": [
    {
      "inputs": [
        {
          "internalType": "contract IBEP20",
          "name": "_cakeToken",
          "type": "address"
        },
        {
          "internalType": "uint256",
          "name": "_numberCakeToReactivate",
          "type": "uint256"
        },
        {
          "internalType": "uint256",
          "name": "_numberCakeToRegister",
          "type": "uint256"
        },
        {
          "internalType": "uint256",
          "name": "_numberCakeToUpdate",
          "type": "uint256"
        }
      ],
      "stateMutability": "nonpayable",
      "type": "constructor"
    },
    {
      "anonymous": false,
      "inputs": [
        {
          "indexed": true,
          "internalType": "bytes32",
          "name": "role",
          "type": "bytes32"
        },
        {
          "indexed": true,
          "internalType": "bytes32",
          "name": "previousAdminRole",
          "type": "bytes32"
        },
        {
          "indexed": true,
          "internalType": "bytes32",
          "name": "newAdminRole",
          "type": "bytes32"
        }
      ],
      "name": "RoleAdminChanged",
      "type": "event"
    },
    {
      "anonymous": false,
      "inputs": [
        {
          "indexed": true,
          "internalType": "bytes32",
          "name": "role",
          "type": "bytes32"
        },
        {
          "indexed": true,
          "internalType": "address",
          "name": "account",
          "type": "address"
        },
        {
          "indexed": true,
          "internalType": "address",
          "name": "sender",
          "type": "address"
        }
      ],
      "name": "RoleGranted",
      "type": "event"
    },
    {
      "anonymous": false,
      "inputs": [
        {
          "indexed": true,
          "internalType": "bytes32",
          "name": "role",
          "type": "bytes32"
        },
        {
          "indexed": true,
          "internalType": "address",
          "name": "account",
          "type": "address"
        },
        {
          "indexed": true,
          "internalType": "address",
          "name": "sender",
          "type": "address"
        }
      ],
      "name": "RoleRevoked",
      "type": "event"
    },
    {
      "anonymous": false,
      "inputs": [
        {
          "indexed": false,
          "internalType": "uint256",
          "name": "teamId",
          "type": "uint256"
        },
        {
          "indexed": false,
          "internalType": "string",
          "name": "teamName",
          "type": "string"
        }
      ],
      "name": "TeamAdd",
      "type": "event"
    },
    {
      "anonymous": false,
      "inputs": [
        {
          "indexed": true,
          "internalType": "uint256",
          "name": "teamId",
          "type": "uint256"
        },
        {
          "indexed": false,
          "internalType": "uint256",
          "name": "numberPoints",
          "type": "uint256"
        },
        {
          "indexed": true,
          "internalType": "uint256",
          "name": "campaignId",
          "type": "uint256"
        }
      ],
      "name": "TeamPointIncrease",
      "type": "event"
    },
    {
      "anonymous": false,
      "inputs": [
        {
          "indexed": true,
          "internalType": "address",
          "name": "userAddress",
          "type": "address"
        },
        {
          "indexed": false,
          "internalType": "uint256",
          "name": "oldTeamId",
          "type": "uint256"
        },
        {
          "indexed": false,
          "internalType": "uint256",
          "name": "newTeamId",
          "type": "uint256"
        }
      ],
      "name": "UserChangeTeam",
      "type": "event"
    },
    {
      "anonymous": false,
      "inputs": [
        {
          "indexed": true,
          "internalType": "address",
          "name": "userAddress",
          "type": "address"
        },
        {
          "indexed": false,
          "internalType": "uint256",
          "name": "teamId",
          "type": "uint256"
        },
        {
          "indexed": false,
          "internalType": "address",
          "name": "nftAddress",
          "type": "address"
        },
        {
          "indexed": false,
          "internalType": "uint256",
          "name": "tokenId",
          "type": "uint256"
        }
      ],
      "name": "UserNew",
      "type": "event"
    },
    {
      "anonymous": false,
      "inputs": [
        {
          "indexed": true,
          "internalType": "address",
          "name": "userAddress",
          "type": "address"
        },
        {
          "indexed": false,
          "internalType": "uint256",
          "name": "teamId",
          "type": "uint256"
        }
      ],
      "name": "UserPause",
      "type": "event"
    },
    {
      "anonymous": false,
      "inputs": [
        {
          "indexed": true,
          "internalType": "address",
          "name": "userAddress",
          "type": "address"
        },
        {
          "indexed": false,
          "internalType": "uint256",
          "name": "numberPoints",
          "type": "uint256"
        },
        {
          "indexed": true,
          "internalType": "uint256",
          "name": "campaignId",
          "type": "uint256"
        }
      ],
      "name": "UserPointIncrease",
      "type": "event"
    },
    {
      "anonymous": false,
      "inputs": [
        {
          "indexed": false,
          "internalType": "address[]",
          "name": "userAddresses",
          "type": "address[]"
        },
        {
          "indexed": false,
          "internalType": "uint256",
          "name": "numberPoints",
          "type": "uint256"
        },
        {
          "indexed": true,
          "internalType": "uint256",
          "name": "campaignId",
          "type": "uint256"
        }
      ],
      "name": "UserPointIncreaseMultiple",
      "type": "event"
    },
    {
      "anonymous": false,
      "inputs": [
        {
          "indexed": true,
          "internalType": "address",
          "name": "userAddress",
          "type": "address"
        },
        {
          "indexed": false,
          "internalType": "uint256",
          "name": "teamId",
          "type": "uint256"
        },
        {
          "indexed": false,
          "internalType": "address",
          "name": "nftAddress",
          "type": "address"
        },
        {
          "indexed": false,
          "internalType": "uint256",
          "name": "tokenId",
          "type": "uint256"
        }
      ],
      "name": "UserReactivate",
      "type": "event"
    },
    {
      "anonymous": false,
      "inputs": [
        {
          "indexed": true,
          "internalType": "address",
          "name": "userAddress",
          "type": "address"
        },
        {
          "indexed": false,
          "internalType": "address",
          "name": "nftAddress",
          "type": "address"
        },
        {
          "indexed": false,
          "internalType": "uint256",
          "name": "tokenId",
          "type": "uint256"
        }
      ],
      "name": "UserUpdate",
      "type": "event"
    },
    {
      "inputs": [],
      "name": "DEFAULT_ADMIN_ROLE",
      "outputs": [
        {
          "internalType": "bytes32",
          "name": "",
          "type": "bytes32"
        }
      ],
      "stateMutability": "view",
      "type": "function"
    },
    {
      "inputs": [],
      "name": "NFT_ROLE",
      "outputs": [
        {
          "internalType": "bytes32",
          "name": "",
          "type": "bytes32"
        }
      ],
      "stateMutability": "view",
      "type": "function"
    },
    {
      "inputs": [],
      "name": "POINT_ROLE",
      "outputs": [
        {
          "internalType": "bytes32",
          "name": "",
          "type": "bytes32"
        }
      ],
      "stateMutability": "view",
      "type": "function"
    },
    {
      "inputs": [],
      "name": "SPECIAL_ROLE",
      "outputs": [
        {
          "internalType": "bytes32",
          "name": "",
          "type": "bytes32"
        }
      ],
      "stateMutability": "view",
      "type": "function"
    },
    {
      "inputs": [
        {
          "internalType": "address",
          "name": "_nftAddress",
          "type": "address"
        }
      ],
      "name": "addNftAddress",
      "outputs": [],
      "stateMutability": "nonpayable",
      "type": "function"
    },
    {
      "inputs": [
        {
          "internalType": "string",
          "name": "_teamName",
          "type": "string"
        },
        {
          "internalType": "string",
          "name": "_teamDescription",
          "type": "string"
        }
      ],
      "name": "addTeam",
      "outputs": [],
      "stateMutability": "nonpayable",
      "type": "function"
    },
    {
      "inputs": [],
      "name": "cakeToken",
      "outputs": [
        {
          "internalType": "contract IBEP20",
          "name": "",
          "type": "address"
        }
      ],
      "stateMutability": "view",
      "type": "function"
    },
    {
      "inputs": [
        {
          "internalType": "address",
          "name": "_userAddress",
          "type": "address"
        },
        {
          "internalType": "uint256",
          "name": "_newTeamId",
          "type": "uint256"
        }
      ],
      "name": "changeTeam",
      "outputs": [],
      "stateMutability": "nonpayable",
      "type": "function"
    },
    {
      "inputs": [
        {
          "internalType": "uint256",
          "name": "_amount",
          "type": "uint256"
        }
      ],
      "name": "claimFee",
      "outputs": [],
      "stateMutability": "nonpayable",
      "type": "function"
    },
    {
      "inputs": [
        {
          "internalType": "uint256",
          "name": "_teamId",
          "type": "uint256"
        },
        {
          "internalType": "address",
          "name": "_nftAddress",
          "type": "address"
        },
        {
          "internalType": "uint256",
          "name": "_tokenId",
          "type": "uint256"
        }
      ],
      "name": "createProfile",
      "outputs": [],
      "stateMutability": "nonpayable",
      "type": "function"
    },
    {
      "inputs": [
        {
          "internalType": "bytes32",
          "name": "role",
          "type": "bytes32"
        }
      ],
      "name": "getRoleAdmin",
      "outputs": [
        {
          "internalType": "bytes32",
          "name": "",
          "type": "bytes32"
        }
      ],
      "stateMutability": "view",
      "type": "function"
    },
    {
      "inputs": [
        {
          "internalType": "bytes32",
          "name": "role",
          "type": "bytes32"
        },
        {
          "internalType": "uint256",
          "name": "index",
          "type": "uint256"
        }
      ],
      "name": "getRoleMember",
      "outputs": [
        {
          "internalType": "address",
          "name": "",
          "type": "address"
        }
      ],
      "stateMutability": "view",
      "type": "function"
    },
    {
      "inputs": [
        {
          "internalType": "bytes32",
          "name": "role",
          "type": "bytes32"
        }
      ],
      "name": "getRoleMemberCount",
      "outputs": [
        {
          "internalType": "uint256",
          "name": "",
          "type": "uint256"
        }
      ],
      "stateMutability": "view",
      "type": "function"
    },
    {
      "inputs": [
        {
          "internalType": "uint256",
          "name": "_teamId",
          "type": "uint256"
        }
      ],
      "name": "getTeamProfile",
      "outputs": [
        {
          "internalType": "string",
          "name": "",
          "type": "string"
        },
        {
          "internalType": "string",
          "name": "",
          "type": "string"
        },
        {
          "internalType": "uint256",
          "name": "",
          "type": "uint256"
        },
        {
          "internalType": "uint256",
          "name": "",
          "type": "uint256"
        },
        {
          "internalType": "bool",
          "name": "",
          "type": "bool"
        }
      ],
      "stateMutability": "view",
      "type": "function"
    },
    {
      "inputs": [
        {
          "internalType": "address",
          "name": "_userAddress",
          "type": "address"
        }
      ],
      "name": "getUserProfile",
      "outputs": [
        {
          "internalType": "uint256",
          "name": "",
          "type": "uint256"
        },
        {
          "internalType": "uint256",
          "name": "",
          "type": "uint256"
        },
        {
          "internalType": "uint256",
          "name": "",
          "type": "uint256"
        },
        {
          "internalType": "address",
          "name": "",
          "type": "address"
        },
        {
          "internalType": "uint256",
          "name": "",
          "type": "uint256"
        },
        {
          "internalType": "bool",
          "name": "",
          "type": "bool"
        }
      ],
      "stateMutability": "view",
      "type": "function"
    },
    {
      "inputs": [
        {
          "internalType": "address",
          "name": "_userAddress",
          "type": "address"
        }
      ],
      "name": "getUserStatus",
      "outputs": [
        {
          "internalType": "bool",
          "name": "",
          "type": "bool"
        }
      ],
      "stateMutability": "view",
      "type": "function"
    },
    {
      "inputs": [
        {
          "internalType": "bytes32",
          "name": "role",
          "type": "bytes32"
        },
        {
          "internalType": "address",
          "name": "account",
          "type": "address"
        }
      ],
      "name": "grantRole",
      "outputs": [],
      "stateMutability": "nonpayable",
      "type": "function"
    },
    {
      "inputs": [
        {
          "internalType": "address",
          "name": "",
          "type": "address"
        }
      ],
      "name": "hasRegistered",
      "outputs": [
        {
          "internalType": "bool",
          "name": "",
          "type": "bool"
        }
      ],
      "stateMutability": "view",
      "type": "function"
    },
    {
      "inputs": [
        {
          "internalType": "bytes32",
          "name": "role",
          "type": "bytes32"
        },
        {
          "internalType": "address",
          "name": "account",
          "type": "address"
        }
      ],
      "name": "hasRole",
      "outputs": [
        {
          "internalType": "bool",
          "name": "",
          "type": "bool"
        }
      ],
      "stateMutability": "view",
      "type": "function"
    },
    {
      "inputs": [
        {
          "internalType": "uint256",
          "name": "_teamId",
          "type": "uint256"
        },
        {
          "internalType": "uint256",
          "name": "_numberPoints",
          "type": "uint256"
        },
        {
          "internalType": "uint256",
          "name": "_campaignId",
          "type": "uint256"
        }
      ],
      "name": "increaseTeamPoints",
      "outputs": [],
      "stateMutability": "nonpayable",
      "type": "function"
    },
    {
      "inputs": [
        {
          "internalType": "address",
          "name": "_userAddress",
          "type": "address"
        },
        {
          "internalType": "uint256",
          "name": "_numberPoints",
          "type": "uint256"
        },
        {
          "internalType": "uint256",
          "name": "_campaignId",
          "type": "uint256"
        }
      ],
      "name": "increaseUserPoints",
      "outputs": [],
      "stateMutability": "nonpayable",
      "type": "function"
    },
    {
      "inputs": [
        {
          "internalType": "address[]",
          "name": "_userAddresses",
          "type": "address[]"
        },
        {
          "internalType": "uint256",
          "name": "_numberPoints",
          "type": "uint256"
        },
        {
          "internalType": "uint256",
          "name": "_campaignId",
          "type": "uint256"
        }
      ],
      "name": "increaseUserPointsMultiple",
      "outputs": [],
      "stateMutability": "nonpayable",
      "type": "function"
    },
    {
      "inputs": [
        {
          "internalType": "uint256",
          "name": "_teamId",
          "type": "uint256"
        }
      ],
      "name": "makeTeamJoinable",
      "outputs": [],
      "stateMutability": "nonpayable",
      "type": "function"
    },
    {
      "inputs": [
        {
          "internalType": "uint256",
          "name": "_teamId",
          "type": "uint256"
        }
      ],
      "name": "makeTeamNotJoinable",
      "outputs": [],
      "stateMutability": "nonpayable",
      "type": "function"
    },
    {
      "inputs": [],
      "name": "numberActiveProfiles",
      "outputs": [
        {
          "internalType": "uint256",
          "name": "",
          "type": "uint256"
        }
      ],
      "stateMutability": "view",
      "type": "function"
    },
    {
      "inputs": [],
      "name": "numberCakeToReactivate",
      "outputs": [
        {
          "internalType": "uint256",
          "name": "",
          "type": "uint256"
        }
      ],
      "stateMutability": "view",
      "type": "function"
    },
    {
      "inputs": [],
      "name": "numberCakeToRegister",
      "outputs": [
        {
          "internalType": "uint256",
          "name": "",
          "type": "uint256"
        }
      ],
      "stateMutability": "view",
      "type": "function"
    },
    {
      "inputs": [],
      "name": "numberCakeToUpdate",
      "outputs": [
        {
          "internalType": "uint256",
          "name": "",
          "type": "uint256"
        }
      ],
      "stateMutability": "view",
      "type": "function"
    },
    {
      "inputs": [],
      "name": "numberTeams",
      "outputs": [
        {
          "internalType": "uint256",
          "name": "",
          "type": "uint256"
        }
      ],
      "stateMutability": "view",
      "type": "function"
    },
    {
      "inputs": [
        {
          "internalType": "address",
          "name": "",
          "type": "address"
        },
        {
          "internalType": "address",
          "name": "",
          "type": "address"
        },
        {
          "internalType": "uint256",
          "name": "",
          "type": "uint256"
        },
        {
          "internalType": "bytes",
          "name": "",
          "type": "bytes"
        }
      ],
      "name": "onERC721Received",
      "outputs": [
        {
          "internalType": "bytes4",
          "name": "",
          "type": "bytes4"
        }
      ],
      "stateMutability": "nonpayable",
      "type": "function"
    },
    {
      "inputs": [],
      "name": "pauseProfile",
      "outputs": [],
      "stateMutability": "nonpayable",
      "type": "function"
    },
    {
      "inputs": [
        {
          "internalType": "address",
          "name": "_nftAddress",
          "type": "address"
        },
        {
          "internalType": "uint256",
          "name": "_tokenId",
          "type": "uint256"
        }
      ],
      "name": "reactivateProfile",
      "outputs": [],
      "stateMutability": "nonpayable",
      "type": "function"
    },
    {
      "inputs": [
        {
          "internalType": "uint256",
          "name": "_teamId",
          "type": "uint256"
        },
        {
          "internalType": "uint256",
          "name": "_numberPoints",
          "type": "uint256"
        }
      ],
      "name": "removeTeamPoints",
      "outputs": [],
      "stateMutability": "nonpayable",
      "type": "function"
    },
    {
      "inputs": [
        {
          "internalType": "address",
          "name": "_userAddress",
          "type": "address"
        },
        {
          "internalType": "uint256",
          "name": "_numberPoints",
          "type": "uint256"
        }
      ],
      "name": "removeUserPoints",
      "outputs": [],
      "stateMutability": "nonpayable",
      "type": "function"
    },
    {
      "inputs": [
        {
          "internalType": "address[]",
          "name": "_userAddresses",
          "type": "address[]"
        },
        {
          "internalType": "uint256",
          "name": "_numberPoints",
          "type": "uint256"
        }
      ],
      "name": "removeUserPointsMultiple",
      "outputs": [],
      "stateMutability": "nonpayable",
      "type": "function"
    },
    {
      "inputs": [
        {
          "internalType": "uint256",
          "name": "_teamId",
          "type": "uint256"
        },
        {
          "internalType": "string",
          "name": "_teamName",
          "type": "string"
        },
        {
          "internalType": "string",
          "name": "_teamDescription",
          "type": "string"
        }
      ],
      "name": "renameTeam",
      "outputs": [],
      "stateMutability": "nonpayable",
      "type": "function"
    },
    {
      "inputs": [
        {
          "internalType": "bytes32",
          "name": "role",
          "type": "bytes32"
        },
        {
          "internalType": "address",
          "name": "account",
          "type": "address"
        }
      ],
      "name": "renounceRole",
      "outputs": [],
      "stateMutability": "nonpayable",
      "type": "function"
    },
    {
      "inputs": [
        {
          "internalType": "bytes32",
          "name": "role",
          "type": "bytes32"
        },
        {
          "internalType": "address",
          "name": "account",
          "type": "address"
        }
      ],
      "name": "revokeRole",
      "outputs": [],
      "stateMutability": "nonpayable",
      "type": "function"
    },
    {
      "inputs": [
        {
          "internalType": "uint256",
          "name": "_newNumberCakeToReactivate",
          "type": "uint256"
        },
        {
          "internalType": "uint256",
          "name": "_newNumberCakeToRegister",
          "type": "uint256"
        },
        {
          "internalType": "uint256",
          "name": "_newNumberCakeToUpdate",
          "type": "uint256"
        }
      ],
      "name": "updateNumberCake",
      "outputs": [],
      "stateMutability": "nonpayable",
      "type": "function"
    },
    {
      "inputs": [
        {
          "internalType": "address",
          "name": "_nftAddress",
          "type": "address"
        },
        {
          "internalType": "uint256",
          "name": "_tokenId",
          "type": "uint256"
        }
      ],
      "name": "updateProfile",
      "outputs": [],
      "stateMutability": "nonpayable",
      "type": "function"
    }
  ],
  "bytecode": "0x60806040523480156200001157600080fd5b5060405162003c3338038062003c33833981810160405260808110156200003757600080fd5b50805160208201516040830151606090930151600180546001600160a01b0319166001600160a01b038516179055600382905560048490556005819055919290916200008e60006200008862000098565b6200009c565b50505050620001ac565b3390565b620000a88282620000ac565b5050565b600082815260208181526040909120620000d1918390620030c562000125821b17901c565b15620000a857620000e162000098565b6001600160a01b0316816001600160a01b0316837f2f8788117e7eff1d82e926ec794901d17c78024a50270940304540a733656f0d60405160405180910390a45050565b60006200013c836001600160a01b03841662000145565b90505b92915050565b600062000153838362000194565b6200018b575081546001818101845560008481526020808220909301849055845484825282860190935260409020919091556200013f565b5060006200013f565b60009081526001919091016020526040902054151590565b613a7780620001bc6000396000f3fe608060405234801561001057600080fd5b50600436106101d85760003560e01c80630a82697b146101dd5780630d4fb8031461020b578063150b7a02146102c95780631bdc17f6146103aa5780631d0c02b9146103dc5780631e47a476146103f6578063218188d71461041f578063248a9ca31461043c5780632daa72d4146104595780632f2ff15d1461048257806336568abe146104ae5780633dd452d6146104da57806349b2cff5146104e25780635da3c240146104ea5780635db34566146105105780638904bf2f146105d55780639010d07c146105f957806391d148541461061c578063987ee1561461065c578063a0d03526146106bf578063a217fddf146106e5578063a40601ee146106ed578063a56bd1de14610719578063aee2f47f14610787578063be4f9bd614610899578063bf051c13146108a1578063c1694a2f146108a9578063c9bed948146108b1578063ca15c873146108b9578063d1d0954c146108d6578063d547741f146108f9578063da83fe4a14610925578063da95006d14610951578063e2fa2ff314610959578063e5020a62146109cd578063ea0d5dcd146109f9578063ebc4ffc714610a1f578063f667526a14610a3c578063f684f33c14610a59578063fd825f5814610a61575b600080fd5b610209600480360360408110156101f357600080fd5b506001600160a01b038135169060200135610a93565b005b6102096004803603604081101561022157600080fd5b810190602081018135600160201b81111561023b57600080fd5b82018360208201111561024d57600080fd5b803590602001918460018302840111600160201b8311171561026e57600080fd5b919390929091602081019035600160201b81111561028b57600080fd5b82018360208201111561029d57600080fd5b803590602001918460018302840111600160201b831117156102be57600080fd5b509092509050610f23565b61038d600480360360808110156102df57600080fd5b6001600160a01b03823581169260208101359091169160408201359190810190608081016060820135600160201b81111561031957600080fd5b82018360208201111561032b57600080fd5b803590602001918460018302840111600160201b8311171561034c57600080fd5b91908080601f0160208091040260200160405190810160405280939291908181526020018383808284376000920191909152509295506111c5945050505050565b604080516001600160e01b03199092168252519081900360200190f35b610209600480360360608110156103c057600080fd5b506001600160a01b0381351690602081013590604001356111d5565b6103e46112b3565b60408051918252519081900360200190f35b6102096004803603606081101561040c57600080fd5b50803590602081013590604001356112b9565b6102096004803603602081101561043557600080fd5b503561138c565b6103e46004803603602081101561045257600080fd5b5035611447565b6102096004803603606081101561046f57600080fd5b508035906020810135906040013561145c565b6102096004803603604081101561049857600080fd5b50803590602001356001600160a01b03166114b6565b610209600480360360408110156104c457600080fd5b50803590602001356001600160a01b031661151d565b6103e461157e565b6103e4611584565b6102096004803603602081101561050057600080fd5b50356001600160a01b031661158a565b6102096004803603606081101561052657600080fd5b81359190810190604081016020820135600160201b81111561054757600080fd5b82018360208201111561055957600080fd5b803590602001918460018302840111600160201b8311171561057a57600080fd5b919390929091602081019035600160201b81111561059757600080fd5b8201836020820111156105a957600080fd5b803590602001918460018302840111600160201b831117156105ca57600080fd5b5090925090506116a8565b6105dd61184e565b604080516001600160a01b039092168252519081900360200190f35b6105dd6004803603604081101561060f57600080fd5b508035906020013561185d565b6106486004803603604081101561063257600080fd5b50803590602001356001600160a01b031661187e565b604080519115158252519081900360200190f35b6106826004803603602081101561067257600080fd5b50356001600160a01b0316611896565b604080519687526020870195909552858501939093526001600160a01b0390911660608501526080840152151560a0830152519081900360c00190f35b610648600480360360208110156106d557600080fd5b50356001600160a01b0316611949565b6103e461195e565b6102096004803603604081101561070357600080fd5b506001600160a01b038135169060200135611963565b6102096004803603604081101561072f57600080fd5b810190602081018135600160201b81111561074957600080fd5b82018360208201111561075b57600080fd5b803590602001918460208302840111600160201b8311171561077c57600080fd5b919350915035611dcd565b6107a46004803603602081101561079d57600080fd5b5035611f35565b6040518080602001806020018681526020018581526020018415158152602001838103835288818151815260200191508051906020019080838360005b838110156107f95781810151838201526020016107e1565b50505050905090810190601f1680156108265780820380516001836020036101000a031916815260200191505b50838103825287518152875160209182019189019080838360005b83811015610859578181015183820152602001610841565b50505050905090810190601f1680156108865780820380516001836020036101000a031916815260200191505b5097505050505050505060405180910390f35b6103e46120ee565b6103e46120f4565b610209612106565b6103e4612463565b6103e4600480360360208110156108cf57600080fd5b5035612475565b610209600480360360408110156108ec57600080fd5b508035906020013561248c565b6102096004803603604081101561090f57600080fd5b50803590602001356001600160a01b0316612520565b6102096004803603604081101561093b57600080fd5b506001600160a01b038135169060200135612579565b6103e4612621565b6102096004803603606081101561096f57600080fd5b810190602081018135600160201b81111561098957600080fd5b82018360208201111561099b57600080fd5b803590602001918460208302840111600160201b831117156109bc57600080fd5b919350915080359060200135612627565b610209600480360360408110156109e357600080fd5b506001600160a01b0381351690602001356127fc565b61064860048036036020811015610a0f57600080fd5b50356001600160a01b0316612ab9565b61020960048036036020811015610a3557600080fd5b5035612ada565b61020960048036036020811015610a5257600080fd5b5035612b98565b6103e4612c02565b61020960048036036060811015610a7757600080fd5b508035906001600160a01b036020820135169060400135612c14565b60076000610a9f6130da565b6001600160a01b0316815260208101919091526040016000205460ff16610b02576040805162461bcd60e51b815260206004820152601260248201527112185cc81b9bdd081c9959da5cdd195c995960721b604482015290519081900360640190fd5b610b1a60008051602061393d8339815191528361187e565b610b61576040805162461bcd60e51b8152602060048201526013602482015272139195081859191c995cdcc81a5b9d985b1a59606a1b604482015290519081900360640190fd5b60096000610b6d6130da565b6001600160a01b0316815260208101919091526040016000206005015460ff16610bd0576040805162461bcd60e51b815260206004820152600f60248201526e55736572206e6f742061637469766560881b604482015290519081900360640190fd5b600060096000610bde6130da565b6001600160a01b03908116825260208201929092526040016000908120600301549091169150600981610c0f6130da565b6001600160a01b03166001600160a01b031681526020019081526020016000206004015490506000849050806001600160a01b0316636352211e856040518263ffffffff1660e01b81526004018082815260200191505060206040518083038186803b158015610c7e57600080fd5b505afa158015610c92573d6000803e3d6000fd5b505050506040513d6020811015610ca857600080fd5b50516001600160a01b0316610cbb6130da565b6001600160a01b031614610d12576040805162461bcd60e51b81526020600482015260196024820152784f6e6c79204e4654206f776e65722063616e2075706461746560381b604482015290519081900360640190fd5b806001600160a01b03166342842e0e610d296130da565b30876040518463ffffffff1660e01b815260040180846001600160a01b03168152602001836001600160a01b031681526020018281526020019350505050600060405180830381600087803b158015610d8157600080fd5b505af1158015610d95573d6000803e3d6000fd5b50505050610dbc610da46130da565b6005546001546001600160a01b0316919030906130de565b826001600160a01b0381166342842e0e30610dd56130da565b866040518463ffffffff1660e01b815260040180846001600160a01b03168152602001836001600160a01b031681526020018281526020019350505050600060405180830381600087803b158015610e2c57600080fd5b505af1158015610e40573d6000803e3d6000fd5b505050508560096000610e516130da565b6001600160a01b03166001600160a01b0316815260200190815260200160002060030160006101000a8154816001600160a01b0302191690836001600160a01b031602179055508460096000610ea56130da565b6001600160a01b03168152602081019190915260400160002060040155610eca6130da565b6001600160a01b03167fe8e88d4216f3bbc2d1a4dd55aa66fd3e0065ef03970fa056a19d018ca19d5805878760405180836001600160a01b031681526020018281526020019250505060405180910390a2505050505050565b610f356000610f306130da565b61187e565b610f74576040805162461bcd60e51b815260206004820152601260248201526000805160206139d3833981519152604482015290519081900360640190fd5b606084848080601f0160208091040260200160405190810160405280939291908181526020018383808284376000920191909152505082519293505060149091109050610ff7576040805162461bcd60e51b815260206004820152600c60248201526b04d757374206265203c2032360a41b604482015290519081900360640190fd5b600381511161103b576040805162461bcd60e51b815260206004820152600b60248201526a4d757374206265203e203360a81b604482015290519081900360640190fd5b611045600a613138565b6000611051600a613141565b6040805160c06020601f8a01819004028201810190925260a081018881529293509182918990899081908501838280828437600092019190915250505090825250604080516020601f880181900481028201810190925286815291810191908790879081908401838280828437600092018290525093855250505060208083018290526040808401839052600160609094019390935284825260088152919020825180519192611106928492909101906137c0565b50602082810151805161111f92600185019201906137c0565b50604082810151600283015560608084015160038401556080909301516004909201805460ff19169215159290921790915560068390558051838152602081018281529181018890527f1137f48534f03e02268dec7839069a7484bc6788c43e4ed9dc38dd8a2f269bc79284928a928a929091908201848480828437600083820152604051601f909101601f1916909201829003965090945050505050a1505050505050565b630a85bd0160e11b949350505050565b6111ef6000805160206139f3833981519152610f306130da565b611234576040805162461bcd60e51b81526020600482015260116024820152702737ba1030903837b4b73a1030b236b4b760791b604482015290519081900360640190fd5b6001600160a01b03831660009081526009602052604090206001015461125a9083613145565b6001600160a01b038416600081815260096020908152604091829020600101939093558051858152905184937f04bc07bcb78bb21e5665cf01cd24f6a6a06e21fd20d60df8f0fa8d58c66f2934928290030190a3505050565b60055481565b6112d36000805160206139f3833981519152610f306130da565b611318576040805162461bcd60e51b81526020600482015260116024820152702737ba1030903837b4b73a1030b236b4b760791b604482015290519081900360640190fd5b6000838152600860205260409020600301546113349083613145565b600860008581526020019081526020016000206003018190555080837f2056366a9d1345af9da00985231357931fb77dc7fa7bdf71058e3ca3816f9d38846040518082815260200191505060405180910390a3505050565b6113996000610f306130da565b6113d8576040805162461bcd60e51b815260206004820152601260248201526000805160206139d3833981519152604482015290519081900360640190fd5b60065481111580156113ea5750600081115b61142c576040805162461bcd60e51b815260206004820152600e60248201526d1d19585b5259081a5b9d985b1a5960921b604482015290519081900360640190fd5b6000908152600860205260409020600401805460ff19169055565b60009081526020819052604090206002015490565b6114696000610f306130da565b6114a8576040805162461bcd60e51b815260206004820152601260248201526000805160206139d3833981519152604482015290519081900360640190fd5b600392909255600455600555565b6000828152602081905260409020600201546114d490610f306130da565b61150f5760405162461bcd60e51b815260040180806020018281038252602f8152602001806138e4602f913960400191505060405180910390fd5b611519828261319d565b5050565b6115256130da565b6001600160a01b0316816001600160a01b0316146115745760405162461bcd60e51b815260040180806020018281038252602f815260200180613a13602f913960400191505060405180910390fd5b6115198282613206565b60065481565b60045481565b6115976000610f306130da565b6115d6576040805162461bcd60e51b815260206004820152601260248201526000805160206139d3833981519152604482015290519081900360640190fd5b604080516301ffc9a760e01b81526380ac58cd60e01b600482015290516001600160a01b038316916301ffc9a7916024808301926020929190829003018186803b15801561162357600080fd5b505afa158015611637573d6000803e3d6000fd5b505050506040513d602081101561164d57600080fd5b505161168d576040805162461bcd60e51b815260206004820152600a6024820152694e6f742045524337323160b01b604482015290519081900360640190fd5b6116a560008051602061393d833981519152826114b6565b50565b6116b56000610f306130da565b6116f4576040805162461bcd60e51b815260206004820152601260248201526000805160206139d3833981519152604482015290519081900360640190fd5b60065485111580156117065750600085115b611748576040805162461bcd60e51b815260206004820152600e60248201526d1d19585b5259081a5b9d985b1a5960921b604482015290519081900360640190fd5b606084848080601f01602080910402602001604051908101604052809392919081815260200183838082843760009201919091525050825192935050601490911090506117cb576040805162461bcd60e51b815260206004820152600c60248201526b04d757374206265203c2032360a41b604482015290519081900360640190fd5b600381511161180f576040805162461bcd60e51b815260206004820152600b60248201526a4d757374206265203e203360a81b604482015290519081900360640190fd5b600086815260086020526040902061182890868661383e565b50600086815260086020526040902061184590600101848461383e565b50505050505050565b6001546001600160a01b031681565b6000828152602081905260408120611875908361326f565b90505b92915050565b6000828152602081905260408120611875908361327b565b6001600160a01b0381166000908152600760205260408120548190819081908190819060ff166118fe576040805162461bcd60e51b815260206004820152600e60248201526d139bdd081c9959da5cdd195c995960921b604482015290519081900360640190fd5b505050506001600160a01b039283166000908152600960205260409020805460018201546002830154600384015460048501546005909501549398929791965016935060ff90911690565b60076020526000908152604090205460ff1681565b600081565b6007600061196f6130da565b6001600160a01b0316815260208101919091526040016000205460ff166119d2576040805162461bcd60e51b815260206004820152601260248201527112185cc81b9bdd081c9959da5cdd195c995960721b604482015290519081900360640190fd5b6119ea60008051602061393d8339815191528361187e565b611a31576040805162461bcd60e51b8152602060048201526013602482015272139195081859191c995cdcc81a5b9d985b1a59606a1b604482015290519081900360640190fd5b60096000611a3d6130da565b6001600160a01b0316815260208101919091526040016000206005015460ff1615611aa0576040805162461bcd60e51b815260206004820152600e60248201526d557365722069732061637469766560901b604482015290519081900360640190fd5b6000829050806001600160a01b0316636352211e836040518263ffffffff1660e01b81526004018082815260200191505060206040518083038186803b158015611ae957600080fd5b505afa158015611afd573d6000803e3d6000fd5b505050506040513d6020811015611b1357600080fd5b50516001600160a01b0316611b266130da565b6001600160a01b031614611b7d576040805162461bcd60e51b81526020600482015260196024820152784f6e6c79204e4654206f776e65722063616e2075706461746560381b604482015290519081900360640190fd5b611ba0611b886130da565b6003546001546001600160a01b0316919030906130de565b806001600160a01b03166342842e0e611bb76130da565b30856040518463ffffffff1660e01b815260040180846001600160a01b03168152602001836001600160a01b031681526020018281526020019350505050600060405180830381600087803b158015611c0f57600080fd5b505af1158015611c23573d6000803e3d6000fd5b50505050600060096000611c356130da565b6001600160a01b03166001600160a01b03168152602001908152602001600020600201549050611c856001600860008481526020019081526020016000206002015461314590919063ffffffff16565b600082815260086020526040902060029081019190915554611ca8906001613145565b600255600160096000611cb96130da565b6001600160a01b03166001600160a01b0316815260200190815260200160002060050160006101000a81548160ff0219169083151502179055508360096000611d006130da565b6001600160a01b03166001600160a01b0316815260200190815260200160002060030160006101000a8154816001600160a01b0302191690836001600160a01b031602179055508260096000611d546130da565b6001600160a01b03168152602081019190915260400160002060040155611d796130da565b604080518381526001600160a01b038781166020830152818301879052915192909116917fdb76eea80687b6553e5d689ff9d000c0ce2c10574b39d64cacc2b4f6f54f68389181900360600190a250505050565b611de76000805160206139f3833981519152610f306130da565b611e2c576040805162461bcd60e51b81526020600482015260116024820152702737ba1030903837b4b73a1030b236b4b760791b604482015290519081900360640190fd5b6103e98210611e7a576040805162461bcd60e51b81526020600482015260156024820152744c656e677468206d757374206265203c203130303160581b604482015290519081900360640190fd5b60005b82811015611f2f57611edb8260096000878786818110611e9957fe5b905060200201356001600160a01b03166001600160a01b03166001600160a01b031681526020019081526020016000206001015461329090919063ffffffff16565b60096000868685818110611eeb57fe5b905060200201356001600160a01b03166001600160a01b03166001600160a01b03168152602001908152602001600020600101819055508080600101915050611e7d565b50505050565b60608060008060006006548611158015611f4f5750600086115b611f91576040805162461bcd60e51b815260206004820152600e60248201526d1d19585b5259081a5b9d985b1a5960921b604482015290519081900360640190fd5b6000868152600860209081526040918290206002808201546003830154600484015484548751601f6000196001848116156101000291909101909316969096049586018890048802810188019098528488529496948701959294919360ff909116928791908301828280156120475780601f1061201c57610100808354040283529160200191612047565b820191906000526020600020905b81548152906001019060200180831161202a57829003601f168201915b5050875460408051602060026001851615610100026000190190941693909304601f8101849004840282018401909252818152959a50899450925084019050828280156120d55780601f106120aa576101008083540402835291602001916120d5565b820191906000526020600020905b8154815290600101906020018083116120b857829003601f168201915b50989f939e50959c50939a509198509650505050505050565b60025481565b60008051602061395d83398151915281565b600760006121126130da565b6001600160a01b0316815260208101919091526040016000205460ff16612175576040805162461bcd60e51b815260206004820152601260248201527112185cc81b9bdd081c9959da5cdd195c995960721b604482015290519081900360640190fd5b600960006121816130da565b6001600160a01b0316815260208101919091526040016000206005015460ff166121e4576040805162461bcd60e51b815260206004820152600f60248201526e55736572206e6f742061637469766560881b604482015290519081900360640190fd5b6000600960006121f26130da565b6001600160a01b0316815260208101919091526040016000908120600501805460ff19169215159290921790915560098161222b6130da565b6001600160a01b03166001600160a01b0316815260200190815260200160002060020154905061227b6001600860008481526020019081526020016000206002015461329090919063ffffffff16565b60008281526008602052604090206002908101919091555461229e906001613290565b60025560006009816122ae6130da565b6001600160a01b039081168252602082019290925260400160009081206003015490911691506009816122df6130da565b6001600160a01b03166001600160a01b031681526020019081526020016000206004015490506000600960006123136130da565b6001600160a01b03166001600160a01b0316815260200190815260200160002060030160006101000a8154816001600160a01b0302191690836001600160a01b031602179055506000600960006123686130da565b6001600160a01b03166001600160a01b0316815260200190815260200160002060040181905550816001600160a01b03166342842e0e306123a76130da565b846040518463ffffffff1660e01b815260040180846001600160a01b03168152602001836001600160a01b031681526020018281526020019350505050600060405180830381600087803b1580156123fe57600080fd5b505af1158015612412573d6000803e3d6000fd5b5050505061241e6130da565b6001600160a01b03167fe0ed25582c4d86fd51bfe26383781fc8bbf5636813cbfdf93c440b5828c93040846040518082815260200191505060405180910390a2505050565b6000805160206139f383398151915281565b6000818152602081905260408120611878906132ed565b6124a66000805160206139f3833981519152610f306130da565b6124eb576040805162461bcd60e51b81526020600482015260116024820152702737ba1030903837b4b73a1030b236b4b760791b604482015290519081900360640190fd5b6000828152600860205260409020600301546125079082613290565b6000928352600860205260409092206003019190915550565b60008281526020819052604090206002015461253e90610f306130da565b6115745760405162461bcd60e51b81526004018080602001828103825260308152602001806139a36030913960400191505060405180910390fd5b6125936000805160206139f3833981519152610f306130da565b6125d8576040805162461bcd60e51b81526020600482015260116024820152702737ba1030903837b4b73a1030b236b4b760791b604482015290519081900360640190fd5b6001600160a01b0382166000908152600960205260409020600101546125fe9082613290565b6001600160a01b0390921660009081526009602052604090206001019190915550565b60035481565b6126416000805160206139f3833981519152610f306130da565b612686576040805162461bcd60e51b81526020600482015260116024820152702737ba1030903837b4b73a1030b236b4b760791b604482015290519081900360640190fd5b6103e983106126d4576040805162461bcd60e51b81526020600482015260156024820152744c656e677468206d757374206265203c203130303160581b604482015290519081900360640190fd5b60005b838110156127895761273583600960008888868181106126f357fe5b905060200201356001600160a01b03166001600160a01b03166001600160a01b031681526020019081526020016000206001015461314590919063ffffffff16565b6009600087878581811061274557fe5b905060200201356001600160a01b03166001600160a01b03166001600160a01b031681526020019081526020016000206001018190555080806001019150506126d7565b50807f473f8fafa9bb6f152b95565955b672a2c8b798b9c0a7c17f2e43bd4577f972de85858560405180806020018381526020018281038252858582818152602001925060200280828437600083820152604051601f909101601f1916909201829003965090945050505050a250505050565b61281660008051602061395d833981519152610f306130da565b61285d576040805162461bcd60e51b81526020600482015260136024820152722737ba10309039b832b1b4b0b61030b236b4b760691b604482015290519081900360640190fd5b6001600160a01b03821660009081526007602052604090205460ff166128bf576040805162461bcd60e51b8152602060048201526012602482015271155cd95c88191bd95cdb89dd08195e1a5cdd60721b604482015290519081900360640190fd5b60065481111580156128d15750600081115b612919576040805162461bcd60e51b81526020600482015260146024820152731d19585b525908191bd95cdb89dd08195e1a5cdd60621b604482015290519081900360640190fd5b60008181526008602052604090206004015460ff16612973576040805162461bcd60e51b81526020600482015260116024820152705465616d206e6f74206a6f696e61626c6560781b604482015290519081900360640190fd5b6001600160a01b0382166000908152600960205260409020600201548114156129d9576040805162461bcd60e51b8152602060048201526013602482015272416c726561647920696e20746865207465616d60681b604482015290519081900360640190fd5b6001600160a01b03821660009081526009602090815260408083206002908101548085526008909352922090910154612a13906001613290565b60008281526008602081815260408084206002908101959095556001600160a01b038816845260098252808420850187905586845291905290200154612a5a906001613145565b60008381526008602090815260409182902060020192909255805183815291820184905280516001600160a01b038616927f74c08ece62e2369a06a4cac8609fd31e7f3ae99e0dbedbc2bfcf0b9397d9a69192908290030190a2505050565b6001600160a01b031660009081526009602052604090206005015460ff1690565b612ae76000610f306130da565b612b26576040805162461bcd60e51b815260206004820152601260248201526000805160206139d3833981519152604482015290519081900360640190fd5b6006548111158015612b385750600081115b612b7a576040805162461bcd60e51b815260206004820152600e60248201526d1d19585b5259081a5b9d985b1a5960921b604482015290519081900360640190fd5b6000908152600860205260409020600401805460ff19166001179055565b612ba56000610f306130da565b612be4576040805162461bcd60e51b815260206004820152601260248201526000805160206139d3833981519152604482015290519081900360640190fd5b6116a5612bef6130da565b6001546001600160a01b031690836132f8565b60008051602061393d83398151915281565b60076000612c206130da565b6001600160a01b0316815260208101919091526040016000205460ff1615612c84576040805162461bcd60e51b8152602060048201526012602482015271105b1c9958591e481c9959da5cdd195c995960721b604482015290519081900360640190fd5b6006548311158015612c965750600083115b612cd8576040805162461bcd60e51b815260206004820152600e60248201526d125b9d985b1a59081d19585b525960921b604482015290519081900360640190fd5b60008381526008602052604090206004015460ff16612d32576040805162461bcd60e51b81526020600482015260116024820152705465616d206e6f74206a6f696e61626c6560781b604482015290519081900360640190fd5b612d4a60008051602061393d8339815191528361187e565b612d91576040805162461bcd60e51b8152602060048201526013602482015272139195081859191c995cdcc81a5b9d985b1a59606a1b604482015290519081900360640190fd5b6000829050806001600160a01b0316636352211e836040518263ffffffff1660e01b81526004018082815260200191505060206040518083038186803b158015612dda57600080fd5b505afa158015612dee573d6000803e3d6000fd5b505050506040513d6020811015612e0457600080fd5b50516001600160a01b0316612e176130da565b6001600160a01b031614612e70576040805162461bcd60e51b815260206004820152601b60248201527a27b7363c9027232a1037bbb732b91031b0b7103932b3b4b9ba32b960291b604482015290519081900360640190fd5b806001600160a01b03166342842e0e612e876130da565b30856040518463ffffffff1660e01b815260040180846001600160a01b03168152602001836001600160a01b031681526020018281526020019350505050600060405180830381600087803b158015612edf57600080fd5b505af1158015612ef3573d6000803e3d6000fd5b50505050612f1a612f026130da565b6004546001546001600160a01b0316919030906130de565b612f24600b613138565b6000612f30600b613141565b90506040518060c0016040528082815260200160008152602001868152602001856001600160a01b031681526020018481526020016001151581525060096000612f786130da565b6001600160a01b03908116825260208083019390935260409182016000908120855181559385015160018086019190915592850151600285015560608501516003850180546001600160a01b03191691909316179091556080840151600484015560a0909301516005909201805460ff191692151592909217909155906007906130006130da565b6001600160a01b031681526020810191909152604001600020805460ff1916911515919091179055600254613036906001613145565b600290815560008681526008602052604090200154613056906001613145565b6000868152600860205260409020600201556130706130da565b604080518781526001600160a01b038781166020830152818301879052915192909116917f628915737ae1dae037b128d0892692746d4e63e2f72632781c0a08f7168b1be89181900360600190a25050505050565b6000611875836001600160a01b03841661334f565b3390565b604080516001600160a01b0380861660248301528416604482015260648082018490528251808303909101815260849091019091526020810180516001600160e01b03166323b872dd60e01b179052611f2f908590613399565b80546001019055565b5490565b600082820183811015611875576040805162461bcd60e51b815260206004820152601b60248201527a536166654d6174683a206164646974696f6e206f766572666c6f7760281b604482015290519081900360640190fd5b60008281526020819052604090206131b590826130c5565b15611519576131c26130da565b6001600160a01b0316816001600160a01b0316837f2f8788117e7eff1d82e926ec794901d17c78024a50270940304540a733656f0d60405160405180910390a45050565b600082815260208190526040902061321e908261344a565b156115195761322b6130da565b6001600160a01b0316816001600160a01b0316837ff6391f5c32d9c69d2a47ea670b442974b53935d1edc7fd64eb21e047a839171b60405160405180910390a45050565b6000611875838361345f565b6000611875836001600160a01b0384166134c3565b6000828211156132e7576040805162461bcd60e51b815260206004820152601e60248201527f536166654d6174683a207375627472616374696f6e206f766572666c6f770000604482015290519081900360640190fd5b50900390565b600061187882613141565b604080516001600160a01b038416602482015260448082018490528251808303909101815260649091019091526020810180516001600160e01b031663a9059cbb60e01b17905261334a908490613399565b505050565b600061335b83836134c3565b61339157508154600181810184556000848152602080822090930184905584548482528286019093526040902091909155611878565b506000611878565b60606133ee826040518060400160405280602081526020017f5361666542455032303a206c6f772d6c6576656c2063616c6c206661696c6564815250856001600160a01b03166134db9092919063ffffffff16565b80519091501561334a5780806020019051602081101561340d57600080fd5b505161334a5760405162461bcd60e51b815260040180806020018281038252602a815260200180613913602a913960400191505060405180910390fd5b6000611875836001600160a01b0384166134f4565b815460009082106134a15760405162461bcd60e51b81526004018080602001828103825260228152602001806138c26022913960400191505060405180910390fd5b8260000182815481106134b057fe5b9060005260206000200154905092915050565b60009081526001919091016020526040902054151590565b60606134ea84846000856135ba565b90505b9392505050565b600081815260018301602052604081205480156135b0578354600019808301919081019060009087908390811061352757fe5b906000526020600020015490508087600001848154811061354457fe5b60009182526020808320909101929092558281526001898101909252604090209084019055865487908061357457fe5b60019003818190600052602060002001600090559055866001016000878152602001908152602001600020600090556001945050505050611878565b6000915050611878565b6060824710156135fb5760405162461bcd60e51b815260040180806020018281038252602681526020018061397d6026913960400191505060405180910390fd5b61360485613716565b613655576040805162461bcd60e51b815260206004820152601d60248201527f416464726573733a2063616c6c20746f206e6f6e2d636f6e7472616374000000604482015290519081900360640190fd5b60006060866001600160a01b031685876040518082805190602001908083835b602083106136945780518252601f199092019160209182019101613675565b6001836020036101000a03801982511681845116808217855250505050505090500191505060006040518083038185875af1925050503d80600081146136f6576040519150601f19603f3d011682016040523d82523d6000602084013e6136fb565b606091505b509150915061370b82828661371c565b979650505050505050565b3b151590565b6060831561372b5750816134ed565b82511561373b5782518084602001fd5b8160405162461bcd60e51b81526004018080602001828103825283818151815260200191508051906020019080838360005b8381101561378557818101518382015260200161376d565b50505050905090810190601f1680156137b25780820380516001836020036101000a031916815260200191505b509250505060405180910390fd5b828054600181600116156101000203166002900490600052602060002090601f016020900481019282601f1061380157805160ff191683800117855561382e565b8280016001018555821561382e579182015b8281111561382e578251825591602001919060010190613813565b5061383a9291506138ac565b5090565b828054600181600116156101000203166002900490600052602060002090601f016020900481019282601f1061387f5782800160ff1982351617855561382e565b8280016001018555821561382e579182015b8281111561382e578235825591602001919060010190613891565b5b8082111561383a57600081556001016138ad56fe456e756d657261626c655365743a20696e646578206f7574206f6620626f756e6473416363657373436f6e74726f6c3a2073656e646572206d75737420626520616e2061646d696e20746f206772616e745361666542455032303a204245503230206f7065726174696f6e20646964206e6f7420737563636565648736816fdbcc15d6cc3f6dcf60e42b0ef33eb02281d312c807a38b4ad09190c03f12a51c1a5d4235e47a0365ddc220be1678ccffcdf71bfd6ee9c417f801e008416464726573733a20696e73756666696369656e742062616c616e636520666f722063616c6c416363657373436f6e74726f6c3a2073656e646572206d75737420626520616e2061646d696e20746f207265766f6b654e6f7420746865206d61696e2061646d696e0000000000000000000000000000110b44e4bccdedbab0625f137765abddea8ae658791a82fff3fb5e80db2bad48416363657373436f6e74726f6c3a2063616e206f6e6c792072656e6f756e636520726f6c657320666f722073656c66a26469706673582212208ed1ace08a36568c1e26e7fccd8fc4e51d4fbf7cdc757021b8b1686161e533e564736f6c634300060c0033",
  "linkReferences": {},
  "deployedLinkReferences": {}
}